:100000000AC019C018C017C016C03AC014C05CC0DE
:1000100012C011C010C011271FBFCFE5D0E0DEBF56
:10002000CDBF20E0A0E4B0E001C01D93A134B20731
:10003000E1F78AD0A7C0E4CFCF93DF930F93CDB77A
:10004000DEB71BBD97BD86BD19BD18BD42E04ABDD8
:100050004BBD0F91DF91CF9108951BBD44E047BD8B
:1000600016BD19BD18BD42E04ABD4BBD41E040A9D7
:10007000089542B154E0452742B943E040A90895AC
:100080001F931FB71F9310E04F935F931BBD40A1B9
:10009000413051F04250423008F410A95F914F9125
:1000A0001F911FBF1F91189542E040A91BBD58E04A
:1000B00057BD16BD19BD18BD4ABD4BBD5F914F91CF
:1000C0001F911FBF1F9118951F931FB71F9310E01B
:1000D0004F935F9340A1413051F0423049F14423A6
:1000E000B1F05F914F911F911FBF1F9118951BBDDC
:1000F00054E057BD16BD19BD18BD52E05ABD5BBDD9
:1001000040A95F914F911F911FBF1F9118951BBD73
:1001100044E047BD16BD19BD18BD42E04ABD4BBD08
:1001200041E040A95F914F911F911FBF1F9118950A
:1001300042B154E0452742B943E040A95F914F9155
:100140001F911FBF1F9118950A9A4FB740684FBF64
:10015000909A819A1EBD44E04DBD4FB34A604FBB9B
:1001600078941BBD48E047BD16BD19BD18BD42E0DF
:100170004ABD4BBD4AB741604ABF88954AB74E7FDA
:080180004ABFF8CFF894FFCF4D
:00000001FF
